:100000000C94B1000C94E0000C94E0000C94E0001F
:100010000C94E0000C94E0000C94E0000C94E000E0
:100020000C94E0000C94E0000C94E0000C94E000D0
:100030000C94E0000C94E0000C94E0000C94E000C0
:100040000C94E0000C94E0000C946D070C94E0001C
:100050000C94E0000C94E0000C94E0000C94E000A0
:100060000C94E0000C94E0000C94CD090C94E0009A
:100070000C94E0000C94E0000C94BF070C94E0009A
:100080000C94E0000C94E0000C94E0004A05530549
:10009000560559055C055F056105710578054C0538
:1000A00050054552524F5220696E207461736B2087
:1000B00000526573657474696E67004552524F5201
:1000C000206372656174696E67207461736B2000D0
:1000D0005461736B20002063726561746564002C49
:1000E00020737461636B2061742030780049444C44
:1000F00045090930092D09002F000909002D2D2D72
:100100002D09092D2D2D2D092D2D2D2D2D00092DDC
:100110002D2D2D2D2D2D2D2D2D00092D2D2D2D008D
:100120004E616D6509095072692E095374617465D9
:100130000009467265652F546F74616C0009527531
:100140006E73005461736B09092020092000095364
:100150007461636B00090009002F000900090000A9
:10016000301611241FBECFEFD0E1DEBFCDBF11E0AE
:10017000A0E0B1E0ECEAFEE200E00BBF02C00790B5
:100180000D92A837B107D9F71CE0A8E7B1E001C08C
:100190001D92AE37B107E1F711E0C2E6D1E000E011
:1001A00006C022970109FE010BBF0E94D216C0367D
:1001B000D10780E00807A9F70E94FA150C9454179C
:1001C0000C940000CF93DF9300D000D0CDB7DEB702
:1001D0003C010E94730F69837A838B839C8384E143
:1001E00090E00E94CC042C01F301668177811F927C
:1001F0008AE48F9387E08F9385E08F9382E08F93DB
:1002000083E0882E97E0A92E25E3C22ED12C32E37D
:10021000E32EF12C07E310E024E330E041E350E06B
:10022000C2010E9440010F900F900F900F900F900D
:10023000C2010E94CC01F30186859785A089B1890E
:100240000196A11DB11D86879787A08BB18B4AE0CF
:1002500050E060E070E0CE0101960E941E11E8CFF0
:100260000F931F93CF93DF93EC010E94550287E316
:1002700091E099838883DF91CF911F910F91089529
:100280008F92AF92BF92CF92DF92EF92FF920F9335
:100290001F93CF93DF93CDB7DEB7FC0171836083EB
:1002A000338322835583448317830683F186E08654
:1002B000D386C2868889848785868E858687A78629
:1002C00089899A89918B808B8F85828BDA012C9119
:1002D00081E090E0BC0102C0660F771FAA94E2F7AC
:1002E000262B2C93A281B3816C91AC01058402C0B2
:1002F000440F551F0A94E2F79C01068402C0220FA6
:10030000331F0A94E2F7242B262B2C93A681B78166
:100310004C919C01028802C0220F331F0A94E2F71D
:10032000422B4C93A085B1854C919C01078402C05F
:10033000220F331F0A94E2F7422B4C93A285B38518
:100340006C91AC01058402C0440F551F0A94E2F77A
:100350009C01068402C0220F331F0A94E2F7242B6B
:10036000262B2C932FB52360048402C0880F991F7D
:100370000A94E2F7282B2FBD8EB58A608EBDDF91DF
:10038000CF911F910F91FF90EF90DF90CF90BF9092
:10039000AF908F9008950895FC01A285B3856C916C
:1003A00081E090E0AC01058402C0440F551F0A941F
:1003B000E2F79C01068402C0220F331F0A94E2F781
:1003C000242B262B2C93A085B1852C91078402C069
:1003D000880F991F0A94E2F7282B2C930088F18943
:1003E000E02D80E197E2918380830895FC01A0894C
:1003F000B18980E197E211969C938E93A085B18597
:100400004C9181E090E09C01078402C0220F331FD1
:100410000A94E2F7422B4C932389A285B3854C9131
:10042000211118C09C01068402C0220F331F0A94B8
:10043000E2F7422B4C93A285B3852C91058402C030
:10044000880F991F0A94E2F7809582238C9381E0AC
:10045000838B08959C01058402C0220F331F0A94E8
:10046000E2F7422B4C93A285B3852C91068402C0FF
:10047000880F991F0A94E2F7809582238C93138A40
:1004800008950895EC01E881F9810190F081E02D53
:1004900009951B821A826FEF7FEFCB010E948D11AD
:1004A000FACFFC016487658708952F923F924F929F
:1004B0005F926F927F928F929F92AF92BF92CF92F4
:1004C000DF92EF92FF920F931F93CF93DF93CDB7FD
:1004D000DEB72A970FB6F894DEBF0FBECDBF4C0132
:1004E000190128018FE391E0F40191838083FB01DE
:1004F0008081882309F4A5C09E012F5F3F4F3901F9
:10050000D901319690E09F5F8D938191882309F402
:1005100069C09930C1F7E9E0F0E0E60DF71D1082FF
:10052000740192E0E90EF11CA12CB12CC12CD12C4C
:10053000042F9401A101B3018FE596E10E94A70D5C
:10054000F4015782468231862086209192013091B3
:1005500093013583248390929301809292011486B3
:10056000158620907C0C30907D0CFFEF2F1A3F0AEF
:1005700030927D0C20927C0CF40133862286168604
:100580001786108A118A4114510499F06AE081306B
:1005900061F1C2010E943D054C016BEB70E00E94CD
:1005A0000005B301C4010E94000566E0C4010E9479
:1005B0003D052A960FB6F894DEBF0FBECDBFDF9182
:1005C000CF911F910F91FF90EF90DF90CF90BF9050
:1005D000AF909F908F907F906F905F904F903F90E3
:1005E0002F900895E92FF0E098CFC2010E943D05B9
:1005F0007C0160ED70E00E940005B301C7010E941C
:1006000000056AE0C7010E943D057C0166ED70E0CF
:100610000E9400056AE0C7010E943D057C016FED64
:1006200070E00E94000563E0C7010E943D05B10132
:100630000E947F0562E00E943D0566E00E943D0544
:10064000B8CFE0E0F0E0CE0101963C0166CFEC01CE
:100650008A819B810E948D0F8C016AE08E819F812F
:100660000E943D05EC0162EA70E00E940005B801BD
:10067000CE010E9400056AE0CE010E943D05EC011A
:1006800061EB70E00E94000566E0CE010E943D052E
:100690002BE088E190E00FB6F894A89581BD0FBEDD
:1006A00021BDFFCF8F929F92AF92BF92CF92DF92E8
:1006B000EF92FF920F931F93CF93DF93EC018B0187
:1006C0008A819B810E948D0FBC01C8010E94000598
:1006D000D801ED91FC910280F381E02D69E0C80121
:1006E00009958A819B810E948D0FFC010190002059
:1006F000E9F73197E81BF90B389748F4D801ED91E9
:10070000FC910280F381E02D69E0C8010995CE8457
:10071000DF84E888F988A884B9848A819B810E9453
:10072000F612982E8C848A819B810E94AF0E682FCE
:10073000C8010E9401066AE00E943D05EC0165E5E2
:1007400071E00E940005682DCE010E9401066AE05A
:100750000E943D05EC0167E571E00E940005692DEE
:10076000CE010E9401066AE00E943D05EC0169E5A8
:1007700071E00E940005B501CE010E947F056AE08C
:100780000E943D05EC016BE571E00E9400056AE006
:10079000CE010E943D05EC016DE571E00E9400056F
:1007A000B701A601CE01DF91CF911F910F91FF906C
:1007B000EF90DF90CF90BF90AF909F908F900C9470
:1007C000B9050F931F93CF93DF93EC018B01E88161
:1007D000F9810280F381E02DB801CE01099566E030
:1007E000C8010E943D050C80DD81C02D209779F75E
:1007F000DF91CF911F910F910895CF93DF93EC017B
:10080000CB01DB01ED91FC910280F381E02DBE0173
:100810000995CE01DF91CF9108950F931F93CF9348
:10082000DF93EC016AE00E943D058C0163E471E016
:100830000E9400056AE0C8010E943D058C016EE43B
:1008400071E00E94000566E0C8010E943D056AE073
:10085000CE010E943D058C0160E271E00E9400051E
:100860006AE0C8010E943D058C0161E371E00E94CD
:1008700000056AE0C8010E943D058C016DE371E04E
:100880000E94000566E0C8010E943D056AE0CE01B5
:100890000E943D058C016DEF70E00E9400056AE04A
:1008A000C8010E943D058C016EE071E00E940005C8
:1008B0006AE0C8010E943D058C016AE171E00E9476
:1008C000000566E0C8010E943D058091920190916B
:1008D0009301009719F0BE010E94E1030E94970F57
:1008E0000E94F612182F6AE0CE010E943D05EC012D
:1008F0006DEE70E00E940005612FCE010E9401069E
:100900006AE00E943D05EC0168EF70E00E9400057E
:1009100064E670E0CE010E947F056AE00E943D051A
:10092000EC016AEF70E00E94000566E0CE01DF9105
:10093000CF911F910F910C943D059F92AF92BF9262
:10094000CF92DF92EF92FF920F931F93CF93DF939B
:10095000EC01962E5A01680179010E94F20427E405
:1009600031E039832883BF86AE8640E061E0892D7F
:100970000E94C90A99878887CA86DB86EC86FD862D
:10098000DF91CF911F910F91FF90EF90DF90CF906B
:10099000BF90AF909F9008950C941208009711F0AB
:1009A0000C943A0808950C941208009711F00C94D6
:1009B0003A080895FC0181E090E02081222311F0A3
:1009C00080E090E0089521E0FC01208308950895DF
:1009D000089581E0089580E090E0089580E0089512
:1009E00008950895FC0187E591E0918380838AE072
:1009F0008283138283E0858314821782168208958E
:100A00000F931F93CF93DF93EC01FB018C81811136
:100A100017C06081662379F08F010F5F1F4FE88157
:100A2000F9810280F381E02DCE010995F8016191F1
:100A30008F016111F4CFDF91CF911F910F91089534
:100A40001C828B010F5F1F4F64916623A1F3A88165
:100A5000B9811296ED91FC911397CE010995F80199
:100A600064910F5F1F4F6111F2CFE5CF883008F01E
:100A700087E08093000189E00895CF93DF93EC0134
:100A8000462F50E04B30510538F4FA01EA5BFF4F36
:100A90000C94CC1682E08A83CE01DF91CF91089529
:100AA00081E08C83F9CF88E08A83F6CF8AE08A835D
:100AB000F3CF80E18A83F0CF81E08B83EDCF1B827F
:100AC000EBCFE881F9810280F381E02D6DE009959B
:100AD000E881F9810280F381E02D6AE0CE01099579
:100AE000DBCFE881F9810284F385E02D0995D4CF2D
:100AF000E881F9810084F185E02D0995CDCFFF9241
:100B00000F931F93CF93DF93CDB7DEB761970FB6E7
:100B1000F894DEBF0FBECDBF8C01F62E972FF801E3
:100B20004281403191F0483081F0423071F050E024
:100B3000BE016F5F7F4F8F2D0E941A17BE016F5F3E
:100B40007F4FC8010E94000507C0692FC8010E949D
:100B500001066F2D0E940106C80161960FB6F89438
:100B6000DEBF0FBECDBFDF91CF911F910F91FF90E0
:100B70000895DF92EF92FF920F931F93CF93DF932D
:100B8000CDB7DEB7A1970FB6F894DEBF0FBECDBFCD
:100B90008C01D42EE52EF62E972FF80122812031DC
:100BA000A1F0283091F0223081F030E0AE014F5FAB
:100BB0005F4F6D2D7E2D8F2D0E94F516BE016F5F4C
:100BC0007F4FC8010E9400050DC0692FC8010E9417
:100BD00001066F2D0E9401066E2D0E9401066D2DEB
:100BE0000E940106C801A1960FB6F894DEBF0FBEA1
:100BF000CDBFDF91CF911F910F91FF90EF90DF90CC
:100C00000895CF92DF92EF92FF920F931F93CF93AD
:100C1000DF93CDB7DEB729970FB6F894DEBF0FBECE
:100C2000CDBF8C01D62EDC0113968C9113978111C8
:100C30005DC0F80142814230D9F14031F1F050E01D
:100C4000BE016F5F7F4F8D2D90E00E941A17BE018D
:100C50006F5F7F4FC8010E940005C80129960FB63B
:100C6000F894DEBF0FBECDBFDF91CF911F910F91E2
:100C7000FF90EF90DF90CF90089562956F70019094
:100C8000F081E02D0280F381E02D6A30B8F5605DDF
:100C9000C80109956D2D6F70D801ED91FC9102800E
:100CA000F381E02D6A3060F1695CC8010995D5CF08
:100CB00088E0E82EF12C90E8C92E0AC061E3C80153
:100CC0000995C694B1E0EB1AF108E114F10429F298
:100CD0008C2D8D21D801ED91FC910280F381E02DC6
:100CE0008111ECCF60E3C8010995EBCFED91FC9148
:100CF0000280F381E02DC8010995AFCF695CC8CFB0
:100D0000605DD3CFDC011A96ED91FC911B97808139
:100D10001E969C911E97892359F421E23EE405C05A
:100D2000215031092115310581F080818923C1F3DA
:100D3000808150969C915097892B80831896ED91D5
:100D4000FC911997608381E0089580E00895FC018B
:100D5000818981111EC020919C0130919D0180915B
:100D60009A0190919B012817390791F0E0919E011B
:100D7000F0919F01E20FF31F80812F5F3F4F2032E0
:100D8000310528F110929D0110929C0190E0089588
:100D9000FFCF20919601309197018091940190911D
:100DA00095012817390791F0E0919801F091990188
:100DB000E20FF31F80812F5F3F4F2032310568F033
:100DC000109297011092960190E00895FFCF309312
:100DD0009D0120939C0190E008953093970120930A
:100DE000960190E00895DC01ED91FC910280F38181
:100DF000E02D6CE00994FC018189882369F081E091
:100E00004091960150919701209194013091950164
:100E10004217530769F0089581E040919C01509179
:100E20009D0120919A0130919B014217530799F738
:100E300080E00895EF92FF921F93CF93DF9300D04D
:100E4000CDB7DEB77C01142F69837A830E94F20448
:100E5000412F69817A81C70108960E949E1387E617
:100E600091E0F70191838083118B1123E9F0809148
:100E70009A00806880939A0080E290E00E94D304F8
:100E80009093990180939801109297011092960186
:100E900010929501109294010F900F90DF91CF91D5
:100EA0001F91FF90EF900895579A80E290E00E9482
:100EB000D30490939F0180939E0110929D01109204
:100EC0009C0110929B0110929A010F900F90DF915C
:100ED000CF911F91FF90EF9008951F920F920FB640
:100EE0000F9211240BB60F922F933F938F939F93E2
:100EF000EF93FF932CB1E0919E01F0919F018091BF
:100F00009A0190919B01E80FF91F208380919A012B
:100F100090919B01019680329105C0F490939B01C2
:100F200080939A0120919C0130919D0128173907E7
:100F3000D1F0FF91EF919F918F913F912F910F9061
:100F40000BBE0F900FBE0F901F90189510929B0133
:100F500010929A0180E090E020919C0130919D01D7
:100F60002817390731F7019690939D0180939C01D2
:100F70008097F8F210929D0110929C01DACF1F9297
:100F80000F920FB60F9211240BB60F922F933F932F
:100F90008F939F93EF93FF9320919C00E091980192
:100FA000F09199018091940190919501E80FF91FBA
:100FB0002083809194019091950101968032910552
:100FC000C0F4909395018093940120919601309103
:100FD000970128173907D1F0FF91EF919F918F91D9
:100FE0003F912F910F900BBE0F900FBE0F901F904F
:100FF0001895109295011092940180E090E0209154
:101000009601309197012817390731F7019690938F
:101010009701809396018097F8F2109297011092B1
:101020009601DACFCF93DF93EC010E946D0F4091D0
:10103000A0015091A1019E01240F351F28378AE09D
:10104000380780F44217530768F4EA01CE55DE4FA3
:101050003093A1012093A0010E94AD10CE01DF9139
:10106000CF910895C0E0D0E00E94AD10CE01DF9195
:10107000CF91089508951092A1011092A0010895B2
:101080002091A0013091A10188E79AE0821B930B87
:10109000089590937D0C80937C0C31E1FC013083AA
:1010A000319722E22083FC013297A3E3A083FC0165
:1010B00033976083FC0134977083FC01359710826D
:1010C000FC01369760E86083FC0137971082FC01D1
:1010D000389762E06083FC01399763E06083FC012C
:1010E0003A9764E06083FC013B9765E06083FC0114
:1010F0003C9766E06083FC013D9767E06083FC01FC
:101100003E9768E06083FC013F9769E06083FC01E3
:10111000709760E16083FC0171973083FC017297E6
:1011200032E13083FC01739733E13083FC01749723
:1011300034E13083FC01759735E13083FC0176970B
:1011400036E13083FC01779737E13083FC017897F3
:1011500038E13083FC01799739E13083FC017A97DB
:1011600030E23083FC017B9731E23083FC017C97D5
:101170002083FC017D9723E22083FC017E9740833E
:10118000FC017F975083FC01B09726E22083FC018D
:10119000B19727E22083FC01B29728E22083FC016B
:1011A000B39729E22083FC01B49720E32083FC015C
:1011B000B59721E320838697089587E08093870081
:1011C0008FEC809386008AE080938A00EDE7F0E060
:1011D000808180618083A0911A0CB0911B0CCD910D
:1011E000CDBFDD91DEBFFF91EF91DF91CF91BF9138
:1011F000AF919F918F917F916F915F914F913F91AF
:101200002F911F910F91FF90EF90DF90CF90BF90A3
:10121000AF909F908F907F906F905F904F903F9096
:101220002F901F900F900FBE0F90089581E00895AA
:1012300008950F920FB6F8940F921F9211242F92D7
:101240003F924F925F926F927F928F929F92AF9256
:10125000BF92CF92DF92EF92FF920F931F932F9343
:101260003F934F935F936F937F938F939F93AF932E
:10127000BF93CF93DF93EF93FF93A0911A0CB0919C
:101280001B0C0DB60D920EB60D920E94C211A091CC
:101290001A0CB0911B0CCD91CDBFDD91DEBFFF913B
:1012A000EF91DF91CF91BF91AF919F918F917F91FE
:1012B0006F915F914F913F912F911F910F91FF90EF
:1012C000EF90DF90CF90BF90AF909F908F907F90E6
:1012D0006F905F904F903F902F901F900F900FBE98
:1012E0000F9008950F920FB6F8940F921F92112449
:1012F0002F923F924F925F926F927F928F929F9226
:10130000AF92BF92CF92DF92EF92FF920F931F9313
:101310002F933F934F935F936F937F938F939F93FD
:10132000AF93BF93CF93DF93EF93FF93A0911A0CEA
:10133000B0911B0C0DB60D920EB60D920E949C0F33
:101340000E94C211A0911A0CB0911B0CCD91CDBF7F
:10135000DD91DEBFFF91EF91DF91CF91BF91AF9112
:101360009F918F917F916F915F914F913F912F91BD
:101370001F910F91FF90EF90DF90CF90BF90AF90B3
:101380009F908F907F906F905F904F903F902F90A5
:101390001F900F900FBE0F9008950E94720918952C
:1013A000CF93DF93EC0188A181110BC088819981D3
:1013B000892B09F446C08E8D8F5F8E8FDF91CF9180
:1013C000089541111CC0482F50E08C819D810E94DE
:1013D000D61628A18C819D81820F911D9D838C83BF
:1013E0002A813B818217930730F3888199819D83FD
:1013F0008C838E8D8F5F8E8FDF91CF910895482FD4
:1014000050E08E819F810E94D61628A130E0319550
:10141000219531098E819F81820F931F9F838E8337
:10142000488159818417950730F68A819B81820F04
:10143000931F9F838E838E8D8F5F8E8FDF91CF91D1
:1014400008958A819B810E9467131B821A82B3CF01
:10145000FC01CB01A081B181109799F040A150E02F
:1014600026813781240F351F37832683628173815C
:101470002617370718F0B783A6839D01B9010C948E
:10148000D61608950F931F93CF93DF93EC010FB6F9
:10149000F8940F928AA11816DCF48B898823C1F086
:1014A0008E010D5E1F4F08C08AA181508AA31816B5
:1014B0007CF48B89882361F0C8010E943112882353
:1014C00099F30E94F2128AA181508AA318168CF314
:1014D0008FEF8AA30F900FBE0FB6F8940F9289A1D9
:1014E0001816DCF488858823C1F08E01085F1F4F31
:1014F00008C089A1815089A318167CF488858823A7
:1015000061F0C8010E943112882399F30E94F212FF
:1015100089A1815089A318168CF38FEF89A30F90AE
:101520000FBEDF91CF911F910F910895CF93DF935D
:10153000EC01613051F09B898885882321F080E09F
:10154000DF91CF9108959111FACF288139818F8D44
:1015500068A1869FC0011124A901480F591F5B8310
:101560004A831E8E3D832C83861B9109820F931F15
:101570009F838E838FEF89A38AA3CE0108960E9452
:101580002E14CE0143960E942E1481E0DF91CF915C
:1015900008950F931F93CF93DF93182F062F88235F
:1015A00001F183E290E00E941208EC010097C9F07B
:1015B000109FC001112401960E941208998388830C
:1015C000892B61F01F8F08A361E0CE010E94960A6B
:1015D000CE01DF91CF911F910F910895CE010E940E
:1015E0003A08C0E0D0E0CE01DF91CF911F910F917A
:1015F00008950FB6F8940F92FC0120813181232BBE
:1016000029F4828193810F900FBE089580E090E0CD
:101610000F900FBE08956F927F928F929F92AF921C
:10162000BF92CF92DF92EF92FF920F93CF93DF930F
:10163000CDB7DEB729970FB6F894DEBF0FBECDBF8A
:101640005C014B012E833F834887598720E03C0192
:1016500088E0680E711C0FB6F8940F92F501968D14
:10166000878D981708F455C0CE80DF80E884F98410
:10167000CD28CE28CF2809F46CC0222361F10F9029
:101680000FBE0E946D0F0FB6F8940F92F50181A165
:101690008F3F31F1F50182A18F3F39F10F900FBEDD
:1016A000BE016A5F7F4FCE0101960E9483128111B5
:1016B00054C00FB6F8940F92F501968D0F900FBE9F
:1016C000F501878D981799F0C5010E94420A0E9482
:1016D000AD1021E0C0CFCE0101960E947212CFCF93
:1016E00011A2F50182A18F3FC9F612A2D7CF4E8178
:1016F0005F8168857985C3010E940A12C5010E9435
:10170000420A0E94AD108111E4CF0E94190921E024
:10171000A2CF402FB401C5010E94D009F5018389F1
:10172000811122C00F900FBE81E029960FB6F89468
:10173000DEBF0FBECDBFDF91CF910F91FF90EF9035
:10174000DF90CF90BF90AF909F908F907F906F90E1
:1017500008950F900FBE80E0E8CFC5010E94420AB5
:101760000E94AD1080E0E1CFC50143960E94311286
:101770008130C1F60E941909D5CF0F93CF93DF9323
:1017800083E290E00E941208EC01009701F11B82B5
:101790001A82198218821D821C821F821E821E8E4E
:1017A00081E08F8F18A28FEF89A38AA3CE010896BC
:1017B0000E942E14CE0143960E942E1400E020E0D9
:1017C00030E0A90160E070E0CE010E940B0BCE0179
:1017D000DF91CF910F9108950F931F93CF93DF93D4
:1017E000EC018A019E8D8F8D981730F080E0DF919B
:1017F000CF911F910F910895422FCE010E94D009E1
:101800008AA18F3F41F08F5F8AA381E0DF91CF9162
:101810001F910F9108958B898823B9F3CE014396C8
:101820000E943112882389F381E0F8018083DFCFA1
:10183000AF92BF92CF92DF92EF92FF920F93CF932E
:10184000DF93CDB7DEB729970FB6F894DEBF0FBE92
:10185000CDBF7C016B012E833F834887598790E081
:10186000570183E1A80EB11C0FB6F8940F92F7014F
:10187000868D811169C04E815F8168857985452B90
:10188000462B472B09F47DC0992309F43EC00F90E5
:101890000FBE0E946D0F0FB6F8940F92F70181A151
:1018A0008F3F09F43EC0F70182A18F3F09F43FC08A
:1018B0000F900FBEBE016A5F7F4FCE0101960E945E
:1018C0008312811171C00FB6F8940F92F701868DC3
:1018D0000F900FBE81111EC0F70180819181892B6D
:1018E00041F14E815F8168857985C5010E940A12A8
:1018F000C7010E94420A0E94AD10882311F091E0B6
:10190000B3CF0E94190991E0AFCFCE0101960E949A
:101910007212BDCFC7010E94420A0E94AD1091E031
:10192000A3CF11A2F70182A18F3F09F0C1CF12A26C
:10193000BFCF0FB6F8940F92F701828193810E9476
:1019400014130F900FBECDCFA680B780B601C7018C
:101950000E94280AF70101112EC0868D8150868FC2
:1019600080819181892BB9F1F7018085882341F12C
:10197000C70108960E943112813011F50E941909A1
:101980001FC00F900FBE80E029960FB6F894DEBFFF
:101990000FBECDBFDF91CF910F91FF90EF90DF9001
:1019A000CF90BF90AF900895C7010E94420A0E9455
:1019B000AD1080E0E9CFB782A6828389811104C08F
:1019C0000F900FBE81E0E0CFC70143960E94311215
:1019D0008823B1F3D3CF0E940F13F701938382833F
:1019E000C3CF0F931F93CF93DF9300D0CDB7DEB754
:1019F0008C01FC01868D811108C080E00F900F9052
:101A0000DF91CF911F910F910895C80149835A83A7
:101A10000E94280AF801868D8150868F81A1498114
:101A20005A818F3F59F08F5FF80181A381E00F90B9
:101A30000F90DF91CF911F910F910895808588239A
:101A4000A9F3C801089649835A830E94311249813B
:101A50005A81882359F381E0FA018083CFCF0FB6F2
:101A6000F8940F92FC01868D0F900FBE0895FC0133
:101A7000868D0895CF93DF93EC01888199810E9430
:101A80003A08CE01DF91CF910C943A08FC01968D73
:101A900081E0911180E00895FC01268D81E0978D11
:101AA000291380E008958091500C8230E0F30E9469
:101AB0001909F9CFCF92DF92EF92FF926B017C016F
:101AC000E0911A0CF0911B0C6283738384839583DD
:101AD0008091240C9091250CA091260CB091270C9C
:101AE00060911A0C70911B0CC816D906EA06FB0609
:101AF00010F18091380C9091390C6E5F7F4F0E94ED
:101B000066148091010190910201A0910301B091AE
:101B10000401C816D906EA06FB0640F4C09201018A
:101B2000D0920201E0920301F0920401FF90EF9045
:101B3000DF90CF9008958091360C9091370C6E5FB6
:101B40007F4FFF90EF90DF90CF900C9466145F92E0
:101B50006F927F928F929F92AF92BF92CF92DF92BD
:101B6000EF92FF920F931F93CF93DF935C014B0192
:101B7000EA013901502E88E290E00E9412088C019F
:101B8000009709F4EAC0C114D10409F4DAC0FC01D9
:101B9000D48EC38EC601AE0161E170E00E94DF16F3
:101BA0002197F801C38CD48CCC0EDD1E4AE050E0A6
:101BB000B401C8014D960E94E616F80116A2952CB4
:101BC000F3E0F51508F484C0F801928E97A2E801BD
:101BD0002296CE010E943F14C8010E960E943F1427
:101BE000F8011387028784E090E0A0E0B0E0891953
:101BF0009109A109B10986879787A08BB18B178BB3
:101C0000068BA301B501C6010E944908F801918322
:101C10008083E114F10419F0F701118300830FB6FA
:101C2000F8940F928091280C8F5F8093280C8091FC
:101C30001A0C90911B0C892B09F451C08091210C36
:101C400081110BC0E0911A0CF0911B0C828D58167B
:101C500020F010931B0C00931A0CF801828D9091C8
:101C6000230C981710F48093230C90911C0C9F5F09
:101C700090931C0C9091220C981738F1FBE08F9FE9
:101C8000C0011124BE01805B934F0E9443140F904A
:101C90000FBE8091210C882339F0E0911A0CF0914D
:101CA0001B0C828D8515B8F081E0DF91CF911F91DB
:101CB0000F91FF90EF90DF90CF90BF90AF909F90EB
:101CC0008F907F906F905F9008958093220CD6CF75
:101CD00083E0982E79CF0E94190981E0E6CF109316
:101CE0001B0C00931A0C8091280C813009F0B5CFA1
:101CF00080E59CE00E942E148BE59CE00E942E144F
:101D000086E69CE00E942E1481E79CE00E942E143F
:101D100085E49CE00E942E148AE39CE00E942E142D
:101D20008BE29CE00E942E1485E49CE09093390C99
:101D30008093380C8AE39CE09093370C8093360CA8
:101D40008CCFCE010E941208F801948F838F0097E8
:101D500009F021CFC8010E943A088FEFA6CF0FB635
:101D6000F8940F92009729F00F900FBEFC01828D1E
:101D7000089580911A0C90911B0C0F900FBEFC01DE
:101D8000828D0895EF92FF921F93CF93DF93EC0122
:101D9000E62F643008F0E3E00FB6F8940F928091DC
:101DA0001A0C90911B0CC817D907D9F12097C9F1CB
:101DB0009E018FA18E1711F111E08E1738F5232B9C
:101DC00039F19A8D891741F1EFA344E050E060E0CA
:101DD00070E04E1B5109610971094E875F87688B5E
:101DE000798B2BE0829FC0011124805B934F2C855F
:101DF0003D8528173907E1F0113081F00F900FBEB3
:101E0000DF91CF911F91FF90EF900895232BC9F29E
:101E100010E09A8D8913D8CFEA8FD6CF0E94190986
:101E2000EDCFC0911A0CD0911B0C20E030E0C1CF57
:101E30007E0182E0E80EF11CC7010E94B9148A8D70
:101E40009091220C981710F48093220C2BE0829F23
:101E5000C0011124B701805B934F0E944314CCCF83
:101E6000AF92BF92CF92DF92EF92FF920F93A12C8D
:101E7000B12CC12CD12C99E2E92E9CE0F92E00E086
:101E800020E030E044E650E063E771E083E59DE068
:101E90000E94A70D813041F00F91FF90EF90DF90ED
:101EA000CF90BF90AF900895F8948093210C10923A
:101EB000240C1092250C1092260C1092270C0F91D6
:101EC000FF90EF90DF90CF90BF90AF900C94DD0823
:101ED000F8941092210C0C9418098091200C8F5FBB
:101EE0008093200C08950FB6F8940F926091240C03
:101EF0007091250C8091260C9091270C0F900FBEAD
:101F000008956091240C7091250C8091260C90917D
:101F1000270C08958091280C0895009711F04D9694
:101F2000089580911A0C90911B0C4D960895809104
:101F3000290C90912A0C0895FF920F931F93CF9331
:101F4000DF938091200C8111ACC08091240C909182
:101F5000250CA091260CB091270C0196A11DB11D56
:101F60008093240C9093250CA093260CB093270CFF
:101F70008091240C9091250CA091260CB091270CF7
:101F8000892B8A2B8B2B09F497C0809101019091AA
:101F90000201A0910301B09104014091240C5091E1
:101FA000250C6091260C7091270C481759076A0779
:101FB0007B0708F47BC0E091380CF091390C8081EC
:101FC000882309F45DC0E091380CF091390C07804A
:101FD000F085E02DC085D1858A819B81AC81BD8152
:101FE0004091240C5091250C6091260C7091270C87
:101FF000481759076A077B0708F4A1C02BE0F22EA7
:102000001BC0E091380CF091390C0780F085E02D71
:10201000C085D1858A819B81AC81BD814091240C92
:102020005091250C6091260C7091270C4817590788
:102030006A077B0708F483C08E010E5F1F4FC8013B
:102040000E94B914888D998D892B21F0CE010E96AE
:102050000E94B9148A8D9091220C981710F48093E5
:10206000220CF89EC0011124B801805B934F0E949E
:102070004314E091380CF091390C80818111C1CF6B
:102080008FEF9FEFDC018093010190930201A093F9
:102090000301B0930401DF91CF911F910F91FF9045
:1020A000089580911F0C8F5F80931F0CDF91CF915B
:1020B0001F910F91FF9008958091380C9091390CE9
:1020C0002091360C3091370C3093390C2093380C1A
:1020D0009093370C8093360C80911D0C8F5F80930A
:1020E0001D0CE091380CF091390C808181110CC0ED
:1020F0008FEF9FEFDC018093010190930201A09389
:102100000301B093040149CFE091380CF091390CF0
:102110000780F085E02D0084F185E02D5281438118
:1021200034812581509301014093020130930301D2
:1021300020930401852F942FA32FB22F2ECF8093AD
:10214000010190930201A0930301B0930401DF9178
:10215000CF911F910F91FF900895EF92FF920F93EF
:102160001F93CF93DF930FB6F8940F928091200CBA
:1021700081508093200C8091200C811144C080916B
:10218000280C882309F43FC0E12C3BE0F32E80911A
:102190002B0C882369F1E091320CF091330CC0854F
:1021A000D185CE010E960E94B9148E010E5F1F4F8D
:1021B000C8010E94B9148A8D9091220C981710F4CE
:1021C0008093220CF89EC0011124B801805B934FCC
:1021D0000E944314E0911A0CF0911B0C9A8D828D91
:1021E0009817A8F2EE24E39480912B0C8111D3CFA1
:1021F00080911F0C811118C081E0E816C9F0809110
:102200001E0C8130A9F080E00F900FBEDF91CF91BE
:102210001F910F91FF90EF9008950E949C0F809165
:102220001F0C815080931F0C80911F0C8111F5CFE2
:1022300010921E0C0E94190981E0E6CFCF92DF9226
:10224000EF92FF920F931F93CF93DF9300D000D0B4
:10225000CDB7DEB72091200C2F5F2093200CFC011E
:102260000081118122813381400F511F621F731F32
:10227000C090240CD090250CE090260CF090270CF8
:10228000C016D106E206F306E8F4401751076207CC
:102290007307E8F0FC0140835183628373830E94DB
:1022A000AD10811102C00E9419090F900F900F907C
:1022B0000F90DF91CF911F910F91FF90EF90DF90E2
:1022C000CF900895401751076207730768F0009197
:1022D000240C1091250C2091260C3091270C04170A
:1022E000150726073707B0F6FC0140835183628348
:1022F000738380911A0C90911B0C029649835A8328
:102300006B837C830E94B91449815A816B817C81E3
:10231000CB01BA010E945A0DC2CFCF92DF92EF9249
:10232000FF92611571058105910539F40E94190923
:10233000FF90EF90DF90CF9008952091200C2F5FB9
:102340002093200CC090240CD090250CE090260CFB
:10235000F090270CC60ED71EE81EF91E80911A0CAD
:1023600090911B0C02960E94B914C701B6010E94FD
:102370005A0D0E94AD108823C9F2FF90EF90DF90B4
:10238000CF9008958091200C811139C0E091220CEA
:102390008BE0E89FF0011124E05BF34F8081811115
:1023A00010C09BE08091220C81508093220CE09120
:1023B000220C9E9FF0011124E05BF34F8081882363
:1023C00089F3E091220C8BE0E89FF0011124E05B9F
:1023D000F34FA181B28114960D90BC91A02DB283D0
:1023E000A183CF010396A817B90769F018968D91BC
:1023F0009C91199790931B0C80931A0C089581E07F
:1024000080931E0C089514960D90BC91A02DB2835C
:10241000A183ECCFCF92DF92EF92FF926A017B0112
:1024200060911A0C70911B0C625F7F4F0E946614C2
:1024300080911A0C90911B0C02960E94B914609125
:10244000240C7091250C8091260C9091270C6C0D1A
:102450007D1D8E1D9F1DFF90EF90DF90CF900C94FF
:102460005A0D0F931F93CF93DF93DC011796ED91D5
:10247000FC911897C085D1858E01025F1F4FC8015E
:102480000E94B9148091200C811123C08E010E5F2F
:102490001F4FC8010E94B9148A8D9091220C981781
:1024A000F0F0BBE08B9FC0011124B801805B934F1B
:1024B0000E944314E0911A0CF0911B0C81E02A8DCC
:1024C000928D291708F480E0DF91CF911F910F9131
:1024D0000895B8018BE29CE00E944314EBCF8093F7
:1024E000220CDFCF20911D0CFC0120834091240C95
:1024F0005091250C6091260C7091270C41835283DA
:10250000638374830895CF92DF92EF92FF920F93CB
:102510001F93FC01DB010FB6F8940F9280911D0C04
:102520009081981709F459C0418152816381748167
:102530000091240C1091250C2091260C3091270C31
:102540000417150726073707F0F58A019B0140910C
:10255000240C5091250C6091260C7091270CCD9085
:10256000DD90ED90FC901397401B510B620B730BA9
:102570004C155D056E057F0530F54091240C50919A
:10258000250C6091260C7091270CC41AD50AE60A16
:10259000F70AC00ED11EE21EF31ECD92DD92ED921F
:1025A000FC92139780911D0C80838091240C909154
:1025B000250CA091260CB091270C81839283A383D4
:1025C000B48380E001C081E00F900FBE1F910F9196
:1025D000FF90EF90DF90CF900895018112812381C9
:1025E0003481B5CF81E080931E0C0895009781F06F
:1025F000DC015B96ED91FC915C978081813169F4FF
:10260000319680E090E0019621912131E1F3089527
:1026100080911A0C90911B0CEBCF80E00895809173
:102620001A0C90911B0C08950F931F93CF93DF9377
:10263000EC018A8DE0911A0CF0911B0C928D891798
:1026400010F5E0911A0CF0911B0C928D44E050E0D3
:1026500060E070E0491B5109610971094E875F878D
:10266000688B798B2BE0829FC0011124805B934F94
:102670002C853D852817390759F0E0911A0CF09107
:102680001B0C828D8A8FDF91CF911F910F9108953E
:102690008E010E5F1F4FC8010E94B914E0911A0C01
:1026A000F0911B0C828D8A8F9091220C981710F458
:1026B0008093220C2BE0829FC0011124B801805B23
:1026C000934FDF91CF911F910F910C9443140F936F
:1026D0001F93CF93DF93EC01009759F19A8D8FA14F
:1026E000981739F18E010E5F1F4FC8010E94B9146F
:1026F0008FA18A8F44E050E060E070E0481B5109F0
:10270000610971094E875F87688B798B9091220CE4
:10271000981710F48093220C2BE0829FC0011124A3
:10272000B801805B934FDF91CF911F910F910C9473
:102730004314DF91CF911F910F910895CF93DF93B1
:10274000EC01442309F441C08CE990E0998388832B
:102750008BE990E09B838A838AE990E09D838C8358
:1027600088E180939A0086E080939D001092980003
:102770009B0140E050E0220F331F441F551F220FE2
:10278000331F441F551F220F331F441F551F220F95
:10279000331F441F551F60E074E284EF90E00E94F5
:1027A000AA162093990080919B00816080939B00E2
:1027B00080E28E8380E88F8380E48887E881F981D6
:1027C00080818081DF91CF9108958CE290E09983A0
:1027D00088838BE290E09B838A838AE290E09D83EA
:1027E0008C8388E18AB986E08093950010929000EE
:1027F0009B0140E050E0220F331F441F551F220F62
:10280000331F441F551F220F331F441F551F220F14
:10281000331F441F551F60E074E284EF90E00E9474
:10282000AA1629B9589AC4CFDC011296ED91FC91F1
:102830001397208116968C91282381E009F480E07B
:102840000895DC011296ED91FC9113972081189662
:102850008C91282381E009F080E00895FC01039623
:10286000928381834FEF5FEFBA0143835483658383
:102870007683908787839287818710820895FC01F1
:10288000138612860895CF93DF93DC01FB01119626
:102890002D913C911297E9018C819D8195838483D0
:1028A000378326838C819D81EC017F836E83E901D0
:1028B0007D836C8312967C936E931197B387A28766
:1028C0008C918F5F8C93DF91CF910895EF92FF925F
:1028D0000F931F93CF93DF937C01DB010D911D912B
:1028E0002D913C9113970F3F8FEF1807280738075A
:1028F000E1F1F7013396E7018F819885EC0148817A
:1029000059816A817B81041715072607370778F0FC
:102910000480F581E02D84819581EC014881598105
:102920006A817B81041715072607370788F784819A
:10293000958115969C938E931497EC01BF83AE837B
:102940001796FC93EE931697B583A4831B96FC927F
:10295000EE921A97F70180818F5F8083DF91CF918C
:102960001F910F91FF90EF900895E701E985FA8597
:10297000DECFCF93DF93FC01A481B581868197815F
:1029800017969C938E931697C681D781BD83AC838F
:10299000A285B38511968D919C9112978E179F07F2
:1029A00041F0138612868C9181508C93DF91CF91E8
:1029B00008951296DC93CE931197138612868C910C
:1029C00081508C93DF91CF91089580E0089580E04D
:1029D00008950F93FC01268137814085518500E0E1
:1029E000848195810E940B0B91E0811101C090E0E0
:1029F000892F0F9108950F93FC012681378140851F
:102A0000518501E0848195810E940B0B91E0811139
:102A100001C090E0892F0F910895CF93DF931F920B
:102A2000CDB7DEB7198220E0AE014F5F5F4FFC01EA
:102A3000848195810E94EC0B91E0811101C090E0AE
:102A4000892F0F90DF91CF910895CF93DF931F923D
:102A5000CDB7DEB7198221E0AE014F5F5F4FFC01B9
:102A6000848195810E94EC0B91E0811101C090E07E
:102A7000892F0F90DF91CF9108950F93CF93DF931C
:102A800000D000D0CDB7DEB700E02FEF3FEFA901B7
:102A9000BE016F5F7F4FFC01848195810E94180CFD
:102AA00069817A818B819C810F900F900F900F909C
:102AB000DF91CF910F9108950F9300E02FEF3FEF3B
:102AC000A901FC01848195810E94180C0F91089541
:102AD0000F93CF93DF9300D000D0CDB7DEB701E0E6
:102AE0002FEF3FEFA901BE016F5F7F4FFC01848193
:102AF00095810E94180C69817A818B819C810F904D
:102B00000F900F900F90DF91CF910F9108950F9339
:102B100001E02FEF3FEFA901FC01848195810E9424
:102B2000180C0F910895CF93DF9300D000D01F921F
:102B3000CDB7DEB7AE014B5F5F4FBE016F5F7F4F1A
:102B4000FC01848195810E94F10C69817A818B81DD
:102B50009C810F900F900F900F900F90DF91CF916D
:102B60000895CF93DF931F92CDB7DEB7AE014F5FCD
:102B70005F4FFC01848195810E94F10C0F90DF91E1
:102B8000CF910895FC01848195810E942F0D91E0E1
:102B9000811190E0892F0895FC01848195810E9424
:102BA0002F0D91E0811101C090E0892F0895FC0163
:102BB000848195810E942F0D90E00895FC0184810D
:102BC00095810E94370D91E0811190E0892F089541
:102BD000FC01848195810E94370D91E0811101C033
:102BE00090E0892F0895FC01848195810E94370D22
:102BF00090E008950F931F93CF93DF93CDB7DEB787
:102C000062970FB6F894DEBF0FBECDBF88E10FB656
:102C1000F89481BD11BC0FBE41E060E875E2CE01C1
:102C200001960E941A0782E190E00E94CC048E0176
:102C30000F5F1F4F28E131E041E065E071E00E9445
:102C400030010E94300F80E090E062960FB6F89459
:102C5000DEBF0FBECDBFDF91CF911F910F910895C1
:102C60000F931F930AE010E020E030E040E050E0D6
:102C700060E270E082E891E00E949D0410927B0186
:102C800010927A0183E191E0909379018093780129
:102C900040E064E084E10E94C90A90937D01809342
:102CA0007C018FEF9FEFDC0180937E0190937F0189
:102CB000A0938001B09381011F910F9108950E940C
:102CC00042020F93CF93DF931F92CDB7DEB7698394
:102CD000FC01228533854485558500E0BE016F5F88
:102CE0007F4F808591850E940B0B91E0811101C07F
:102CF00090E0892F0F90DF91CF910F910895FC0103
:102D0000808591850E942F0D91E0811101C090E096
:102D1000892F08950F93CF93DF931F92CDB7DEB71E
:102D200000E02FEF3FEFA901BE016F5F7F4FFC0175
:102D3000808591850E94180C813049F489819927FA
:102D400087FD90950F90DF91CF910F9108958FEFB0
:102D50009FEFF8CFA1E21A2EAA1BBB1BFD010DC0ED
:102D6000AA1FBB1FEE1FFF1FA217B307E407F5073B
:102D700020F0A21BB30BE40BF50B661F771F881F17
:102D8000991F1A9469F760957095809590959B01AD
:102D9000AC01BD01CF010895EE0FFF1F0590F49126
:102DA000E02D09940790F691E02D0994FB01DC01D8
:102DB00002C001900D9241505040D8F70895DC01B7
:102DC00001C06D9341505040E0F70895FB01DC01D4
:102DD0004150504048F001900D920020C9F701C0C9
:102DE0001D9241505040E0F70895FA01CF93FF93B0
:102DF000EF932230CCF02532BCF4C22F2C2F332796
:102E000044275527FF93EF930E94AA16EF91FF9155
:102E1000605D6A330CF0695D6193B901CA0160506D
:102E200070408040904051F710828F919F91CF91D8
:102E30000C943017FB019F01423074F0453264F46A
:102E4000642F77270E944017805D8A330CF0895DDC
:102E50008193CB010097A1F71082C9010C94301720
:102E6000DC01FC01672F71917723E1F7329704C0F1
:102E70007C916D9370836291AE17BF07C8F308957C
:102E8000AA1BBB1B51E107C0AA1FBB1FA617B70790
:102E900010F0A61BB70B881F991F5A95A9F78095AC
:0C2EA0009095BC01CD010895F894FFCF7F
:102EAC0003FFFFFFFF4D6F746F725461736B000073
:102EBC00000000E9140D15FB1425153D155C159348
:102ECC0015B11568158715C215DE15CC15E815D783
:102EDC0015F31500000000E200520300000000E8AA
:102EEC0004520300000000E90461167F168A16F0F4
:102EFC0004F10400000000E904E804EE04EB04F023
:102F0C0004F10400000000E9048206FB06A706F0A9
:082F1C0004F30649444C450092
:00000001FF
